{
  "_format": "hh-sol-artifact-1",
  "contractName": "CampaignFactory",
  "sourceName": "contracts/CampaignFactory.sol",
  "abi": [
    {
      "anonymous": false,
      "inputs": [
        {
          "indexed": false,
          "internalType": "string",
          "name": "title",
          "type": "string"
        },
        {
          "indexed": false,
          "internalType": "uint256",
          "name": "requiredAmount",
          "type": "uint256"
        },
        {
          "indexed": true,
          "internalType": "address",
          "name": "owner",
          "type": "address"
        },
        {
          "indexed": false,
          "internalType": "address",
          "name": "campaignAddress",
          "type": "address"
        },
        {
          "indexed": true,
          "internalType": "uint256",
          "name": "timestamp",
          "type": "uint256"
        },
        {
          "indexed": true,
          "internalType": "string",
          "name": "category",
          "type": "string"
        }
      ],
      "name": "CampaignCreated",
      "type": "event"
    },
    {
      "inputs": [
        {
          "internalType": "string",
          "name": "campaignTitle",
          "type": "string"
        },
        {
          "internalType": "uint256",
          "name": "requiredCampaignAmount",
          "type": "uint256"
        },
        {
          "internalType": "string",
          "name": "category",
          "type": "string"
        },
        {
          "internalType": "string",
          "name": "campaignStory",
          "type": "string"
        }
      ],
      "name": "createCampaign",
      "outputs": [],
      "stateMutability": "nonpayable",
      "type": "function"
    },
    {
      "inputs": [
        {
          "internalType": "uint256",
          "name": "",
          "type": "uint256"
        }
      ],
      "name": "deployedCampaigns",
      "outputs": [
        {
          "internalType": "address",
          "name": "",
          "type": "address"
        }
      ],
      "stateMutability": "view",
      "type": "function"
    },
    {
      "inputs": [],
      "name": "getDeployedCampaigns",
      "outputs": [
        {
          "internalType": "address[]",
          "name": "",
          "type": "address[]"
        }
      ],
      "stateMutability": "view",
      "type": "function"
    }
  ],
  "bytecode": "0x6080604052348015600f57600080fd5b506117c88061001f6000396000f3fe608060405234801561001057600080fd5b50600436106100415760003560e01c8063339d50a5146100465780634acb9d4f1461007657806351b1f46314610094575b600080fd5b610060600480360381019061005b91906102e5565b6100b0565b60405161006d9190610353565b60405180910390f35b61007e6100ef565b60405161008b919061042c565b60405180910390f35b6100ae60048036038101906100a99190610594565b61017d565b005b600081815481106100c057600080fd5b906000526020600020016000915054906101000a900473ffffffffffffffffffffffffffffffffffffffff1681565b6060600080548060200260200160405190810160405280929190818152602001828054801561017357602002820191906000526020600020905b8160009054906101000a900473ffffffffffffffffffffffffffffffffffffffff1673ffffffffffffffffffffffffffffffffffffffff1681526020019060010190808311610129575b5050505050905090565b60008484833360405161018f9061028e565b61019c94939291906106dd565b604051809103906000f0801580156101b8573d6000803e3d6000fd5b5090506000819080600181540180825580915050600190039060005260206000200160009091909190916101000a81548173ffffffffffffffffffffffffffffffffffffffff021916908373ffffffffffffffffffffffffffffffffffffffff1602179055508260405161022c919061076c565b6040518091039020423373ffffffffffffffffffffffffffffffffffffffff167f105c32182bdb9c8348180aed6ee8bc61ba6fc5378f2340ac2f14645607f2f48988888660405161027f93929190610783565b60405180910390a45050505050565b610fd1806107c283390190565b6000604051905090565b600080fd5b600080fd5b6000819050919050565b6102c2816102af565b81146102cd57600080fd5b50565b6000813590506102df816102b9565b92915050565b6000602082840312156102fb576102fa6102a5565b5b6000610309848285016102d0565b91505092915050565b600073ffffffffffffffffffffffffffffffffffffffff82169050919050565b600061033d82610312565b9050919050565b61034d81610332565b82525050565b60006020820190506103686000830184610344565b92915050565b600081519050919050565b600082825260208201905092915050565b6000819050602082019050919050565b6103a381610332565b82525050565b60006103b5838361039a565b60208301905092915050565b6000602082019050919050565b60006103d98261036e565b6103e38185610379565b93506103ee8361038a565b8060005b8381101561041f57815161040688826103a9565b9750610411836103c1565b9250506001810190506103f2565b5085935050505092915050565b6000602082019050818103600083015261044681846103ce565b905092915050565b600080fd5b600080fd5b6000601f19601f8301169050919050565b7f4e487b7100000000000000000000000000000000000000000000000000000000600052604160045260246000fd5b6104a182610458565b810181811067ffffffffffffffff821117156104c0576104bf610469565b5b80604052505050565b60006104d361029b565b90506104df8282610498565b919050565b600067ffffffffffffffff8211156104ff576104fe610469565b5b61050882610458565b9050602081019050919050565b82818337600083830152505050565b6000610537610532846104e4565b6104c9565b90508281526020810184848401111561055357610552610453565b5b61055e848285610515565b509392505050565b600082601f83011261057b5761057a61044e565b5b813561058b848260208601610524565b91505092915050565b600080600080608085870312156105ae576105ad6102a5565b5b600085013567ffffffffffffffff8111156105cc576105cb6102aa565b5b6105d887828801610566565b94505060206105e9878288016102d0565b935050604085013567ffffffffffffffff81111561060a576106096102aa565b5b61061687828801610566565b925050606085013567ffffffffffffffff811115610637576106366102aa565b5b61064387828801610566565b91505092959194509250565b600081519050919050565b600082825260208201905092915050565b60005b8381101561068957808201518184015260208101905061066e565b60008484015250505050565b60006106a08261064f565b6106aa818561065a565b93506106ba81856020860161066b565b6106c381610458565b840191505092915050565b6106d7816102af565b82525050565b600060808201905081810360008301526106f78187610695565b905061070660208301866106ce565b81810360408301526107188185610695565b90506107276060830184610344565b95945050505050565b600081905092915050565b60006107468261064f565b6107508185610730565b935061076081856020860161066b565b80840191505092915050565b6000610778828461073b565b915081905092915050565b6000606082019050818103600083015261079d8186610695565b90506107ac60208301856106ce565b6107b96040830184610344565b94935050505056fe608060405234801561001057600080fd5b50604051610fd1380380610fd1833981810160405281019061003291906102ac565b83600090816100419190610562565b508260018190555081600290816100589190610562565b5080600360006101000a81548173ffffffffffffffffffffffffffffffffffffffff021916908373ffffffffffffffffffffffffffffffffffffffff16021790555050505050610634565b6000604051905090565b600080fd5b600080fd5b600080fd5b600080fd5b6000601f19601f8301169050919050565b7f4e487b7100000000000000000000000000000000000000000000000000000000600052604160045260246000fd5b61010a826100c1565b810181811067ffffffffffffffff82111715610129576101286100d2565b5b80604052505050565b600061013c6100a3565b90506101488282610101565b919050565b600067ffffffffffffffff821115610168576101676100d2565b5b610171826100c1565b9050602081019050919050565b60005b8381101561019c578082015181840152602081019050610181565b60008484015250505050565b60006101bb6101b68461014d565b610132565b9050828152602081018484840111156101d7576101d66100bc565b5b6101e284828561017e565b509392505050565b600082601f8301126101ff576101fe6100b7565b5b815161020f8482602086016101a8565b91505092915050565b6000819050919050565b61022b81610218565b811461023657600080fd5b50565b60008151905061024881610222565b92915050565b600073ffffffffffffffffffffffffffffffffffffffff82169050919050565b60006102798261024e565b9050919050565b6102898161026e565b811461029457600080fd5b50565b6000815190506102a681610280565b92915050565b600080600080608085870312156102c6576102c56100ad565b5b600085015167ffffffffffffffff8111156102e4576102e36100b2565b5b6102f0878288016101ea565b945050602061030187828801610239565b935050604085015167ffffffffffffffff811115610322576103216100b2565b5b61032e878288016101ea565b925050606061033f87828801610297565b91505092959194509250565b600081519050919050565b7f4e487b7100000000000000000000000000000000000000000000000000000000600052602260045260246000fd5b6000600282049050600182168061039d57607f821691505b6020821081036103b0576103af610356565b5b50919050565b60008190508160005260206000209050919050565b60006020601f8301049050919050565b600082821b905092915050565b6000600883026104187fffffffffffffffffffffffffffffffffffffffffffffffffffffffffffffffff826103db565b61042286836103db565b95508019841693508086168417925050509392505050565b6000819050919050565b600061045f61045a61045584610218565b61043a565b610218565b9050919050565b6000819050919050565b61047983610444565b61048d61048582610466565b8484546103e8565b825550505050565b600090565b6104a2610495565b6104ad818484610470565b505050565b5b818110156104d1576104c660008261049a565b6001810190506104b3565b5050565b601f821115610516576104e7816103b6565b6104f0846103cb565b810160208510156104ff578190505b61051361050b856103cb565b8301826104b2565b50505b505050565b600082821c905092915050565b60006105396000198460080261051b565b1980831691505092915050565b60006105528383610528565b9150826002028217905092915050565b61056b8261034b565b67ffffffffffffffff811115610584576105836100d2565b5b61058e8254610385565b6105998282856104d5565b600060209050601f8311600181146105cc57600084156105ba578287015190505b6105c48582610546565b86555061062c565b601f1984166105da866103b6565b60005b82811015610602578489015182556001820191506020850194506020810190506105dd565b8683101561061f578489015161061b601f891682610528565b8355505b6001600288020188555050505b505050505050565b61098e806106436000396000f3fe6080604052600436106100705760003560e01c80638da5cb5b1161004e5780638da5cb5b146100f65780639632e72014610121578063ed88c68e1461014c578063fbbf93a01461015657610070565b806346c922d11461007557806348b9ef40146100a05780634a79d50c146100cb575b600080fd5b34801561008157600080fd5b5061008a610185565b6040516100979190610643565b60405180910390f35b3480156100ac57600080fd5b506100b5610213565b6040516100c2919061067e565b60405180910390f35b3480156100d757600080fd5b506100e0610219565b6040516100ed9190610643565b60405180910390f35b34801561010257600080fd5b5061010b6102a7565b60405161011891906106da565b60405180910390f35b34801561012d57600080fd5b506101366102cd565b604051610143919061067e565b60405180910390f35b6101546102d3565b005b34801561016257600080fd5b5061016b610454565b60405161017c959493929190610716565b60405180910390f35b60028054610192906107a6565b80601f01602080910402602001604051908101604052809291908181526020018280546101be906107a6565b801561020b5780601f106101e05761010080835404028352916020019161020b565b820191906000526020600020905b8154815290600101906020018083116101ee57829003601f168201915b505050505081565b60015481565b60008054610226906107a6565b80601f0160208091040260200160405190810160405280929190818152602001828054610252906107a6565b801561029f5780601f106102745761010080835404028352916020019161029f565b820191906000526020600020905b81548152906001019060200180831161028257829003601f168201915b505050505081565b600360009054906101000a900473ffffffffffffffffffffffffffffffffffffffff1681565b60045481565b600154346004546102e49190610806565b1115610325576040517f08c379a000000000000000000000000000000000000000000000000000000000815260040161031c90610886565b60405180910390fd5b6000600360009054906101000a900473ffffffffffffffffffffffffffffffffffffffff1673ffffffffffffffffffffffffffffffffffffffff163460405161036d906108d7565b60006040518083038185875af1925050503d80600081146103aa576040519150601f19603f3d011682016040523d82523d6000602084013e6103af565b606091505b50509050806103f3576040517f08c379a00000000000000000000000000000000000000000000000000000000081526004016103ea90610938565b60405180910390fd5b34600460008282546104059190610806565b9250508190555042343373ffffffffffffffffffffffffffffffffffffffff167f4928895ba6723e8e27b15f32e4c3054a1b6c7f8c03f133558d6fa42b3928d14c60405160405180910390a450565b60606000606060008060006001546002600360009054906101000a900473ffffffffffffffffffffffffffffffffffffffff16600454848054610496906107a6565b80601f01602080910402602001604051908101604052809291908181526020018280546104c2906107a6565b801561050f5780601f106104e45761010080835404028352916020019161050f565b820191906000526020600020905b8154815290600101906020018083116104f257829003601f168201915b50505050509450828054610522906107a6565b80601f016020809104026020016040519081016040528092919081815260200182805461054e906107a6565b801561059b5780601f106105705761010080835404028352916020019161059b565b820191906000526020600020905b81548152906001019060200180831161057e57829003601f168201915b50505050509250945094509450945094509091929394565b600081519050919050565b600082825260208201905092915050565b60005b838110156105ed5780820151818401526020810190506105d2565b60008484015250505050565b6000601f19601f8301169050919050565b6000610615826105b3565b61061f81856105be565b935061062f8185602086016105cf565b610638816105f9565b840191505092915050565b6000602082019050818103600083015261065d818461060a565b905092915050565b6000819050919050565b61067881610665565b82525050565b6000602082019050610693600083018461066f565b92915050565b600073ffffffffffffffffffffffffffffffffffffffff82169050919050565b60006106c482610699565b9050919050565b6106d4816106b9565b82525050565b60006020820190506106ef60008301846106cb565b92915050565b600061070082610699565b9050919050565b610710816106f5565b82525050565b600060a0820190508181036000830152610730818861060a565b905061073f602083018761066f565b8181036040830152610751818661060a565b90506107606060830185610707565b61076d608083018461066f565b9695505050505050565b7f4e487b7100000000000000000000000000000000000000000000000000000000600052602260045260246000fd5b600060028204905060018216806107be57607f821691505b6020821081036107d1576107d0610777565b5b50919050565b7f4e487b7100000000000000000000000000000000000000000000000000000000600052601160045260246000fd5b600061081182610665565b915061081c83610665565b9250828201905080821115610834576108336107d7565b5b92915050565b7f43616d706169676e2066756e64696e67206c696d697420726561636865640000600082015250565b6000610870601e836105be565b915061087b8261083a565b602082019050919050565b6000602082019050818103600083015261089f81610863565b9050919050565b600081905092915050565b50565b60006108c16000836108a6565b91506108cc826108b1565b600082019050919050565b60006108e2826108b4565b9150819050919050565b7f5472616e73666572206661696c65640000000000000000000000000000000000600082015250565b6000610922600f836105be565b915061092d826108ec565b602082019050919050565b6000602082019050818103600083015261095181610915565b905091905056fea2646970667358221220570e1710313947660a1cd32d4bd6c7da1bb87ae1a47b80aeaa23cbe495f59ee464736f6c634300081b0033a264697066735822122072860b35cecd11fabb029abc50aec1d9e3e435701d7dcc173f400148abda8afe64736f6c634300081b0033",
  "linkReferences": {},
  "deployedLinkReferences": {}
}