{
  "_format": "hh-sol-artifact-1",
  "contractName": "Campaign",
  "sourceName": "contracts/CampaignFactory.sol",
  "abi": [
    {
      "inputs": [
        {
          "internalType": "string",
          "name": "campaignTitle",
          "type": "string"
        },
        {
          "internalType": "uint256",
          "name": "requiredCampaignAmount",
          "type": "uint256"
        },
        {
          "internalType": "string",
          "name": "campaignStory",
          "type": "string"
        },
        {
          "internalType": "address",
          "name": "campaignOwner",
          "type": "address"
        }
      ],
      "stateMutability": "nonpayable",
      "type": "constructor"
    },
    {
      "anonymous": false,
      "inputs": [
        {
          "indexed": true,
          "internalType": "address",
          "name": "donor",
          "type": "address"
        },
        {
          "indexed": true,
          "internalType": "uint256",
          "name": "amount",
          "type": "uint256"
        },
        {
          "indexed": true,
          "internalType": "uint256",
          "name": "timestamp",
          "type": "uint256"
        }
      ],
      "name": "Donated",
      "type": "event"
    },
    {
      "inputs": [],
      "name": "donate",
      "outputs": [],
      "stateMutability": "payable",
      "type": "function"
    },
    {
      "inputs": [],
      "name": "getDetails",
      "outputs": [
        {
          "internalType": "string",
          "name": "",
          "type": "string"
        },
        {
          "internalType": "uint256",
          "name": "",
          "type": "uint256"
        },
        {
          "internalType": "string",
          "name": "",
          "type": "string"
        },
        {
          "internalType": "address",
          "name": "",
          "type": "address"
        },
        {
          "internalType": "uint256",
          "name": "",
          "type": "uint256"
        }
      ],
      "stateMutability": "view",
      "type": "function"
    },
    {
      "inputs": [],
      "name": "owner",
      "outputs": [
        {
          "internalType": "address payable",
          "name": "",
          "type": "address"
        }
      ],
      "stateMutability": "view",
      "type": "function"
    },
    {
      "inputs": [],
      "name": "receivedAmount",
      "outputs": [
        {
          "internalType": "uint256",
          "name": "",
          "type": "uint256"
        }
      ],
      "stateMutability": "view",
      "type": "function"
    },
    {
      "inputs": [],
      "name": "requiredAmount",
      "outputs": [
        {
          "internalType": "uint256",
          "name": "",
          "type": "uint256"
        }
      ],
      "stateMutability": "view",
      "type": "function"
    },
    {
      "inputs": [],
      "name": "story",
      "outputs": [
        {
          "internalType": "string",
          "name": "",
          "type": "string"
        }
      ],
      "stateMutability": "view",
      "type": "function"
    },
    {
      "inputs": [],
      "name": "title",
      "outputs": [
        {
          "internalType": "string",
          "name": "",
          "type": "string"
        }
      ],
      "stateMutability": "view",
      "type": "function"
    }
  ],
  "bytecode": "0x608060405234801561001057600080fd5b50604051610fd1380380610fd1833981810160405281019061003291906102ac565b83600090816100419190610562565b508260018190555081600290816100589190610562565b5080600360006101000a81548173ffffffffffffffffffffffffffffffffffffffff021916908373ffffffffffffffffffffffffffffffffffffffff16021790555050505050610634565b6000604051905090565b600080fd5b600080fd5b600080fd5b600080fd5b6000601f19601f8301169050919050565b7f4e487b7100000000000000000000000000000000000000000000000000000000600052604160045260246000fd5b61010a826100c1565b810181811067ffffffffffffffff82111715610129576101286100d2565b5b80604052505050565b600061013c6100a3565b90506101488282610101565b919050565b600067ffffffffffffffff821115610168576101676100d2565b5b610171826100c1565b9050602081019050919050565b60005b8381101561019c578082015181840152602081019050610181565b60008484015250505050565b60006101bb6101b68461014d565b610132565b9050828152602081018484840111156101d7576101d66100bc565b5b6101e284828561017e565b509392505050565b600082601f8301126101ff576101fe6100b7565b5b815161020f8482602086016101a8565b91505092915050565b6000819050919050565b61022b81610218565b811461023657600080fd5b50565b60008151905061024881610222565b92915050565b600073ffffffffffffffffffffffffffffffffffffffff82169050919050565b60006102798261024e565b9050919050565b6102898161026e565b811461029457600080fd5b50565b6000815190506102a681610280565b92915050565b600080600080608085870312156102c6576102c56100ad565b5b600085015167ffffffffffffffff8111156102e4576102e36100b2565b5b6102f0878288016101ea565b945050602061030187828801610239565b935050604085015167ffffffffffffffff811115610322576103216100b2565b5b61032e878288016101ea565b925050606061033f87828801610297565b91505092959194509250565b600081519050919050565b7f4e487b7100000000000000000000000000000000000000000000000000000000600052602260045260246000fd5b6000600282049050600182168061039d57607f821691505b6020821081036103b0576103af610356565b5b50919050565b60008190508160005260206000209050919050565b60006020601f8301049050919050565b600082821b905092915050565b6000600883026104187fffffffffffffffffffffffffffffffffffffffffffffffffffffffffffffffff826103db565b61042286836103db565b95508019841693508086168417925050509392505050565b6000819050919050565b600061045f61045a61045584610218565b61043a565b610218565b9050919050565b6000819050919050565b61047983610444565b61048d61048582610466565b8484546103e8565b825550505050565b600090565b6104a2610495565b6104ad818484610470565b505050565b5b818110156104d1576104c660008261049a565b6001810190506104b3565b5050565b601f821115610516576104e7816103b6565b6104f0846103cb565b810160208510156104ff578190505b61051361050b856103cb565b8301826104b2565b50505b505050565b600082821c905092915050565b60006105396000198460080261051b565b1980831691505092915050565b60006105528383610528565b9150826002028217905092915050565b61056b8261034b565b67ffffffffffffffff811115610584576105836100d2565b5b61058e8254610385565b6105998282856104d5565b600060209050601f8311600181146105cc57600084156105ba578287015190505b6105c48582610546565b86555061062c565b601f1984166105da866103b6565b60005b82811015610602578489015182556001820191506020850194506020810190506105dd565b8683101561061f578489015161061b601f891682610528565b8355505b6001600288020188555050505b505050505050565b61098e806106436000396000f3fe6080604052600436106100705760003560e01c80638da5cb5b1161004e5780638da5cb5b146100f65780639632e72014610121578063ed88c68e1461014c578063fbbf93a01461015657610070565b806346c922d11461007557806348b9ef40146100a05780634a79d50c146100cb575b600080fd5b34801561008157600080fd5b5061008a610185565b6040516100979190610643565b60405180910390f35b3480156100ac57600080fd5b506100b5610213565b6040516100c2919061067e565b60405180910390f35b3480156100d757600080fd5b506100e0610219565b6040516100ed9190610643565b60405180910390f35b34801561010257600080fd5b5061010b6102a7565b60405161011891906106da565b60405180910390f35b34801561012d57600080fd5b506101366102cd565b604051610143919061067e565b60405180910390f35b6101546102d3565b005b34801561016257600080fd5b5061016b610454565b60405161017c959493929190610716565b60405180910390f35b60028054610192906107a6565b80601f01602080910402602001604051908101604052809291908181526020018280546101be906107a6565b801561020b5780601f106101e05761010080835404028352916020019161020b565b820191906000526020600020905b8154815290600101906020018083116101ee57829003601f168201915b505050505081565b60015481565b60008054610226906107a6565b80601f0160208091040260200160405190810160405280929190818152602001828054610252906107a6565b801561029f5780601f106102745761010080835404028352916020019161029f565b820191906000526020600020905b81548152906001019060200180831161028257829003601f168201915b505050505081565b600360009054906101000a900473ffffffffffffffffffffffffffffffffffffffff1681565b60045481565b600154346004546102e49190610806565b1115610325576040517f08c379a000000000000000000000000000000000000000000000000000000000815260040161031c90610886565b60405180910390fd5b6000600360009054906101000a900473ffffffffffffffffffffffffffffffffffffffff1673ffffffffffffffffffffffffffffffffffffffff163460405161036d906108d7565b60006040518083038185875af1925050503d80600081146103aa576040519150601f19603f3d011682016040523d82523d6000602084013e6103af565b606091505b50509050806103f3576040517f08c379a00000000000000000000000000000000000000000000000000000000081526004016103ea90610938565b60405180910390fd5b34600460008282546104059190610806565b9250508190555042343373ffffffffffffffffffffffffffffffffffffffff167f4928895ba6723e8e27b15f32e4c3054a1b6c7f8c03f133558d6fa42b3928d14c60405160405180910390a450565b60606000606060008060006001546002600360009054906101000a900473ffffffffffffffffffffffffffffffffffffffff16600454848054610496906107a6565b80601f01602080910402602001604051908101604052809291908181526020018280546104c2906107a6565b801561050f5780601f106104e45761010080835404028352916020019161050f565b820191906000526020600020905b8154815290600101906020018083116104f257829003601f168201915b50505050509450828054610522906107a6565b80601f016020809104026020016040519081016040528092919081815260200182805461054e906107a6565b801561059b5780601f106105705761010080835404028352916020019161059b565b820191906000526020600020905b81548152906001019060200180831161057e57829003601f168201915b50505050509250945094509450945094509091929394565b600081519050919050565b600082825260208201905092915050565b60005b838110156105ed5780820151818401526020810190506105d2565b60008484015250505050565b6000601f19601f8301169050919050565b6000610615826105b3565b61061f81856105be565b935061062f8185602086016105cf565b610638816105f9565b840191505092915050565b6000602082019050818103600083015261065d818461060a565b905092915050565b6000819050919050565b61067881610665565b82525050565b6000602082019050610693600083018461066f565b92915050565b600073ffffffffffffffffffffffffffffffffffffffff82169050919050565b60006106c482610699565b9050919050565b6106d4816106b9565b82525050565b60006020820190506106ef60008301846106cb565b92915050565b600061070082610699565b9050919050565b610710816106f5565b82525050565b600060a0820190508181036000830152610730818861060a565b905061073f602083018761066f565b8181036040830152610751818661060a565b90506107606060830185610707565b61076d608083018461066f565b9695505050505050565b7f4e487b7100000000000000000000000000000000000000000000000000000000600052602260045260246000fd5b600060028204905060018216806107be57607f821691505b6020821081036107d1576107d0610777565b5b50919050565b7f4e487b7100000000000000000000000000000000000000000000000000000000600052601160045260246000fd5b600061081182610665565b915061081c83610665565b9250828201905080821115610834576108336107d7565b5b92915050565b7f43616d706169676e2066756e64696e67206c696d697420726561636865640000600082015250565b6000610870601e836105be565b915061087b8261083a565b602082019050919050565b6000602082019050818103600083015261089f81610863565b9050919050565b600081905092915050565b50565b60006108c16000836108a6565b91506108cc826108b1565b600082019050919050565b60006108e2826108b4565b9150819050919050565b7f5472616e73666572206661696c65640000000000000000000000000000000000600082015250565b6000610922600f836105be565b915061092d826108ec565b602082019050919050565b6000602082019050818103600083015261095181610915565b905091905056fea2646970667358221220570e1710313947660a1cd32d4bd6c7da1bb87ae1a47b80aeaa23cbe495f59ee464736f6c634300081b0033",
  "linkReferences": {},
  "deployedLinkReferences": {}
}